:0A0A66003F065B4F666D7D077F6F52
:100A24000C083034383135393236553337440A14EA
:0A0A34003F065B4F666D7D077F6F84
:0F0A5700C294C295C296D290D291D292D29322DB
:1009C6002091047F0180027F002090047E01800236
:1009D6007E00EE4FFF2092047E0180027E00EE4FE5
:1009E600FF2093047E0180027E00EE4F60037F01AC
:0409F600227F00223A
:100A3F00D294D295D296EF7003C29422BF0103C213
:080A4F009522BF0202C29622AB
:10098200E4FDAF05120A3F1209C6EF6030E4FCEC49
:100992007003309012BC010330910CBC0203309200
:1009A20006BC03152093121209C6EF70FAEC75F01B
:1009B20003A424082DF8E6FF220CBC04D20DBD03CB
:0309C200C17FFFF3
:0109C500220F
:1009FA00781E7C007D007BFF7A0A79667E007F0A7A
:100A0A001208D0AB1E120A57120982EFF460F9BF1E
:0A0A1A0030F6AF038F80C2A580EE16
:030000000208F6FD
:0C08F600787FE4F6D8FD75812702093DEB
:10080000E709F608DFFA8046E709F208DFFA803EDA
:1008100088828C83E709F0A3DFFA8032E309F608C7
:10082000DFFA8078E309F208DFFA807088828C832F
:10083000E309F0A3DFFA806489828A83E0A3F608E3
:10084000DFFA805889828A83E0A3F208DFFA804CBD
:1008500080D280FA80C680D4806980F28033801094
:1008600080A680EA809A80A880DA80E280CA8033FD
:1008700089828A83ECFAE493A3C8C582C8CCC58375
:10088000CCF0A3C8C582C8CCC583CCDFE9DEE78045
:100890000D89828A83E493A3F608DFF9ECFAA9F0C4
:1008A000EDFB2289828A83ECFAE0A3C8C582C8CC1A
:1008B000C583CCF0A3C8C582C8CCC583CCDFEADE33
:1008C000E880DB89828A83E493A3F208DFF980CC95
:1008D00088F0EF60010E4E60C388F0ED2402B4048E
:1008E0000050B9F582EB2402B4040050AF23234535
:0608F00082239008507302
:100902000209FAE493A3F8E493A34003F68001F208
:1009120008DFF48029E493A3F85407240CC8C333F6
:10092200C4540F4420C8834004F456800146F6DFC5
:10093200E4800B0102040810204080900A24E47E27
:10094200019360BCA3FF543F30E509541FFEE493BA
:10095200A360010ECF54C025E060A840B8E493A381
:10096200FAE493A3F8E493A3C8C582C8CAC583CAAC
:10097200F0A3C8C582C8CAC583CADFE9DEE780BE64
:010A3E0000B7
:00000001FF
